{
  "contractName": "VaultContract",
  "abi": [
    {
      "anonymous": false,
      "inputs": [
        {
          "indexed": false,
          "internalType": "uint256",
          "name": "vaultId",
          "type": "uint256"
        },
        {
          "indexed": false,
          "internalType": "uint256",
          "name": "amount",
          "type": "uint256"
        }
      ],
      "name": "VaultDistribution",
      "type": "event"
    },
    {
      "inputs": [
        {
          "internalType": "address",
          "name": "",
          "type": "address"
        }
      ],
      "name": "balance",
      "outputs": [
        {
          "internalType": "uint256",
          "name": "",
          "type": "uint256"
        }
      ],
      "stateMutability": "view",
      "type": "function",
      "constant": true
    },
    {
      "inputs": [
        {
          "internalType": "uint256",
          "name": "",
          "type": "uint256"
        }
      ],
      "name": "vaults",
      "outputs": [
        {
          "internalType": "address",
          "name": "creator",
          "type": "address"
        },
        {
          "internalType": "string",
          "name": "name",
          "type": "string"
        },
        {
          "internalType": "uint256",
          "name": "amount",
          "type": "uint256"
        }
      ],
      "stateMutability": "view",
      "type": "function",
      "constant": true
    },
    {
      "inputs": [
        {
          "internalType": "string",
          "name": "name",
          "type": "string"
        },
        {
          "internalType": "address[]",
          "name": "users",
          "type": "address[]"
        },
        {
          "internalType": "uint256",
          "name": "initialAmount",
          "type": "uint256"
        }
      ],
      "name": "createVault",
      "outputs": [
        {
          "internalType": "uint256",
          "name": "vaultId",
          "type": "uint256"
        }
      ],
      "stateMutability": "nonpayable",
      "type": "function"
    },
    {
      "inputs": [
        {
          "internalType": "uint256",
          "name": "vaultId",
          "type": "uint256"
        },
        {
          "internalType": "uint256",
          "name": "amount",
          "type": "uint256"
        }
      ],
      "name": "addAmount",
      "outputs": [],
      "stateMutability": "nonpayable",
      "type": "function"
    },
    {
      "inputs": [
        {
          "internalType": "uint256",
          "name": "vaultId",
          "type": "uint256"
        }
      ],
      "name": "distribute",
      "outputs": [],
      "stateMutability": "nonpayable",
      "type": "function"
    }
  ],
  "bytecode": "0x608060405234801561001057600080fd5b50610ea8806100206000396000f3fe608060405234801561001057600080fd5b50600436106100575760003560e01c80638c64ea4a1461005c57806391c05b0b1461008e578063c0f236a8146100aa578063e3d670d7146100c6578063f0313bee146100f6575b600080fd5b61007660048036038101906100719190610846565b610126565b60405161008593929190610950565b60405180910390f35b6100a860048036038101906100a39190610846565b6101f8565b005b6100c460048036038101906100bf9190610873565b610391565b005b6100e060048036038101906100db919061078e565b610448565b6040516100ed91906109ce565b60405180910390f35b610110600480360381019061010b91906107bb565b610460565b60405161011d91906109ce565b60405180910390f35b60016020528060005260406000206000915090508060000160009054906101000a900473ffffffffffffffffffffffffffffffffffffffff169080600101805461016f90610c50565b80601f016020809104026020016040519081016040528092919081815260200182805461019b90610c50565b80156101e85780601f106101bd576101008083540402835291602001916101e8565b820191906000526020600020905b8154815290600101906020018083116101cb57829003601f168201915b5050505050908060030154905083565b60006001600083815260200190815260200160002090506000816002018054905082600301546102289190610b06565b905060008260030154146103065760005b82600201805490508160ff161015610300578183600301600082825461025f9190610b91565b925050819055508160026000856002018460ff168154811061028457610283610d6a565b5b9060005260206000200160009054906101000a900473ffffffffffffffffffffffffffffffffffffffff1673ffffffffffffffffffffffffffffffffffffffff1673ffffffffffffffffffffffffffffffffffffffff1681526020019081526020016000208190555080806102f890610cb3565b915050610239565b50610341565b6040517f08c379a00000000000000000000000000000000000000000000000000000000081526004016103389061098e565b60405180910390fd5b7ff74d38cf6ed9c70e4fc2833fd59ef7d3bea4ab1e21d7e55c1de68885857a602b838360020180549050836103769190610b37565b6040516103849291906109e9565b60405180910390a1505050565b60006001600084815260200190815260200160002090508060000160009054906101000a900473ffffffffffffffffffffffffffffffffffffffff1673ffffffffffffffffffffffffffffffffffffffff163373ffffffffffffffffffffffffffffffffffffffff161461043a576040517f08c379a0000000000000000000000000000000000000000000000000000000008152600401610431906109ae565b60405180910390fd5b818160030181905550505050565b60026020528060005260406000206000915090505481565b60008060016000805481526020019081526020016000209050338160000160006101000a81548173ffffffffffffffffffffffffffffffffffffffff021916908373ffffffffffffffffffffffffffffffffffffffff160217905550848160010190805190602001906104d4929190610529565b50838160020190805190602001906104ed9291906105af565b5082816003018190555060016000808282546105099190610ab0565b92505081905550600160005461051f9190610b91565b9150509392505050565b82805461053590610c50565b90600052602060002090601f016020900481019282610557576000855561059e565b82601f1061057057805160ff191683800117855561059e565b8280016001018555821561059e579182015b8281111561059d578251825591602001919060010190610582565b5b5090506105ab9190610639565b5090565b828054828255906000526020600020908101928215610628579160200282015b828111156106275782518260006101000a81548173ffffffffffffffffffffffffffffffffffffffff021916908373ffffffffffffffffffffffffffffffffffffffff160217905550916020019190600101906105cf565b5b5090506106359190610639565b5090565b5b8082111561065257600081600090555060010161063a565b5090565b600061066961066484610a37565b610a12565b9050808382526020820190508285602086028201111561068c5761068b610dcd565b5b60005b858110156106bc57816106a28882610708565b84526020840193506020830192505060018101905061068f565b5050509392505050565b60006106d96106d484610a63565b610a12565b9050828152602081018484840111156106f5576106f4610dd2565b5b610700848285610c0e565b509392505050565b60008135905061071781610e44565b92915050565b600082601f83011261073257610731610dc8565b5b8135610742848260208601610656565b91505092915050565b600082601f8301126107605761075f610dc8565b5b81356107708482602086016106c6565b91505092915050565b60008135905061078881610e5b565b92915050565b6000602082840312156107a4576107a3610ddc565b5b60006107b284828501610708565b91505092915050565b6000806000606084860312156107d4576107d3610ddc565b5b600084013567ffffffffffffffff8111156107f2576107f1610dd7565b5b6107fe8682870161074b565b935050602084013567ffffffffffffffff81111561081f5761081e610dd7565b5b61082b8682870161071d565b925050604061083c86828701610779565b9150509250925092565b60006020828403121561085c5761085b610ddc565b5b600061086a84828501610779565b91505092915050565b6000806040838503121561088a57610889610ddc565b5b600061089885828601610779565b92505060206108a985828601610779565b9150509250929050565b6108bc81610bc5565b82525050565b60006108cd82610a94565b6108d78185610a9f565b93506108e7818560208601610c1d565b6108f081610de1565b840191505092915050565b6000610908601283610a9f565b915061091382610df2565b602082019050919050565b600061092b600f83610a9f565b915061093682610e1b565b602082019050919050565b61094a81610bf7565b82525050565b600060608201905061096560008301866108b3565b818103602083015261097781856108c2565b90506109866040830184610941565b949350505050565b600060208201905081810360008301526109a7816108fb565b9050919050565b600060208201905081810360008301526109c78161091e565b9050919050565b60006020820190506109e36000830184610941565b92915050565b60006040820190506109fe6000830185610941565b610a0b6020830184610941565b9392505050565b6000610a1c610a2d565b9050610a288282610c82565b919050565b6000604051905090565b600067ffffffffffffffff821115610a5257610a51610d99565b5b602082029050602081019050919050565b600067ffffffffffffffff821115610a7e57610a7d610d99565b5b610a8782610de1565b9050602081019050919050565b600081519050919050565b600082825260208201905092915050565b6000610abb82610bf7565b9150610ac683610bf7565b9250827fffffffffffffffffffffffffffffffffffffffffffffffffffffffffffffffff03821115610afb57610afa610cdd565b5b828201905092915050565b6000610b1182610bf7565b9150610b1c83610bf7565b925082610b2c57610b2b610d0c565b5b828204905092915050565b6000610b4282610bf7565b9150610b4d83610bf7565b9250817fffffffffffffffffffffffffffffffffffffffffffffffffffffffffffffffff0483118215151615610b8657610b85610cdd565b5b828202905092915050565b6000610b9c82610bf7565b9150610ba783610bf7565b925082821015610bba57610bb9610cdd565b5b828203905092915050565b6000610bd082610bd7565b9050919050565b600073ffffffffffffffffffffffffffffffffffffffff82169050919050565b6000819050919050565b600060ff82169050919050565b82818337600083830152505050565b60005b83811015610c3b578082015181840152602081019050610c20565b83811115610c4a576000848401525b50505050565b60006002820490506001821680610c6857607f821691505b60208210811415610c7c57610c7b610d3b565b5b50919050565b610c8b82610de1565b810181811067ffffffffffffffff82111715610caa57610ca9610d99565b5b80604052505050565b6000610cbe82610c01565b915060ff821415610cd257610cd1610cdd565b5b600182019050919050565b7f4e487b7100000000000000000000000000000000000000000000000000000000600052601160045260246000fd5b7f4e487b7100000000000000000000000000000000000000000000000000000000600052601260045260246000fd5b7f4e487b7100000000000000000000000000000000000000000000000000000000600052602260045260246000fd5b7f4e487b7100000000000000000000000000000000000000000000000000000000600052603260045260246000fd5b7f4e487b7100000000000000000000000000000000000000000000000000000000600052604160045260246000fd5b600080fd5b600080fd5b600080fd5b600080fd5b600080fd5b6000601f19601f8301169050919050565b7f4e6f2066756e647320617661696c61626c650000000000000000000000000000600082015250565b7f4e6f74207661756c74206f776e65720000000000000000000000000000000000600082015250565b610e4d81610bc5565b8114610e5857600080fd5b50565b610e6481610bf7565b8114610e6f57600080fd5b5056fea264697066735822122093259d7ca3cff50aaf53a0ae4b25199fd47966c8ae05f7d06b01e1dacffeadf164736f6c63430008070033",
  "immutableReferences": {},
  "source": "// SPDX-License-Identifier: MIT\r\n\r\npragma solidity >=0.8.7;\r\n\r\ncontract VaultContract {\r\n    struct Vault{\r\n        address creator;\r\n        string name;\r\n        address [] users;\r\n        uint256 amount;\r\n         \r\n    }\r\n   \r\n    uint256 totalVaults;\r\n    mapping(uint256 => Vault)public vaults;\r\n    mapping(address => uint256) public balance;\r\n\r\n    event VaultDistribution(uint256 vaultId, uint256 amount);\r\n\r\n    function createVault(\r\n        string memory name,\r\n        address[] memory users,\r\n        uint256 initialAmount\r\n    ) public returns (uint256 vaultId){\r\n        Vault storage vault = vaults[totalVaults];\r\n\r\n        vault.creator = msg.sender;\r\n        vault.name = name;\r\n        vault.users = users;\r\n        vault.amount = initialAmount;\r\n\r\n        totalVaults += 1;\r\n        return totalVaults -1;\r\n    }\r\n\r\n    function addAmount(uint256 vaultId, uint256 amount) public{\r\n        Vault storage vault = vaults[vaultId];\r\n        require(msg.sender == vault.creator,\"Not vault owner\");\r\n        vault.amount = amount;\r\n    }\r\n    function distribute(uint256 vaultId) public{\r\n        Vault storage vault = vaults[vaultId];\r\n        uint256 amountPerUser = vault.amount / vault.users.length;\r\n        if (vault.amount != 0){\r\n            for (uint8 i; i< vault.users.length; i++) {\r\n                vault.amount -= amountPerUser;\r\n                balance[vault.users[i]] = amountPerUser;\r\n            }\r\n        } else{\r\n            revert('No funds available');\r\n        }\r\n        emit VaultDistribution(vaultId, amountPerUser*vault.users.length);\r\n\r\n    }\r\n    \r\n\r\n}",
  "sourcePath": "C:\\Users\\UE Manila\\Desktop\\MARKET\\Solidity\\second project\\HelloTruffle\\contracts\\VaultContract.sol",
  "compiler": {
    "name": "solc",
    "version": "0.8.7+commit.e28d00a7.Emscripten.clang"
  },
  "schemaVersion": "3.4.3",
  "updatedAt": "2021-10-03T13:10:19.038Z",
  "networkType": "ethereum",
  "devdoc": {
    "kind": "dev",
    "methods": {},
    "version": 1
  },
  "userdoc": {
    "kind": "user",
    "methods": {},
    "version": 1
  }
}